:100000000A128A11FA2F00308A000408840A820733
:1000100000340134023404340834103420344034C1
:0A0020008034183424344234813453
:100E74008316031789018312031386010130831635
:100E8400031386009501FF3081009601831203133A
:100E940087018316031387010A128A115C270A1239
:100EA4008A110A128A1184270A128A114E2F0A12F1
:100EB4008A110028831203130618612F622F832FCF
:100EC4000230F2004530F100A930F000F00B682F39
:100ED400F10B682FF20B682F6F2F83120313061880
:100EE400742F752F832F0130F407F301053074023A
:100EF400031C7D2F7E2F7F2FF401061C822F832F4E
:100F04007F2F0800EB2F7308013E84000A128A1118
:100F140003200A128A118312031387000130F30796
:100F240008307302031C972F982F992FF301063072
:100F3400F2001330F100AD30F000F00B9F2FF10BF5
:100F44009F2FF20B9F2FA62FF92F0830F000730864
:100F5400700284000A128A1103200A128A11831271
:100F6400031387000130F30708307302031CBB2FFF
:100F7400BC2F992F982F7308093E84000A128A11F6
:100F840003200A128A118312031387000130F30726
:100F940004307302031CCF2FD02F992F982F0C30BD
:100FA400F0007308700284000A128A1103200A12E6
:100FB4008A118312031387000130F307043073028C
:100FC400031CE52FE62F992F982F83120313870113
:100FD400F92F7408013A0319852F033A0319A72F2F
:100FE400013A0319BD2F073A0319D12FE72F08003F
:0C0FF400F301F40183010A128A113A2F64
:02400E00F2209E
:00000001FF
