:100000000A128A11C32F073400341A342C343E34B8
:1000100064008001840A04060319003404060928D8
:1000200083120313A601A7012D282508A300A4010C
:100030002308F0002408F1002108F2002208F30050
:100040000A128A1131220A128A1101308312031313
:10005000A6070318A70A0030A70726082007A30051
:100060002308840083130008A5002508031D3928F0
:100070003A2815280800FA01FB017608840083134A
:10008000000884000A128A150A200A128A112A3AE4
:10009000031D4B284C2878287608840001308007FF
:1000A000770884000008F800023080077808840090
:1000B0000008FA00840A0008FB0089287B08F10088
:1000C0007A08F0000A30F2000030F3000A128A15B4
:1000D00021270A128A1179087007FA0000300318E4
:1000E00001307107FB00760884000130831380071C
:1000F00076088400000884000A128A150A200A1271
:100100008A11D03EF9000A307902031C8828892818
:100110005E287B08F7007A08F6000800F5008316D1
:100120000313200884008317211C83130130F3007C
:1001300022080739013E9E280310F30DFF3E031DE0
:100140009C287308FF3A800575080A128A11CB2291
:100150000A128A1183160313200884008317211CB6
:1001600083130130F300220CF400F40C740C0739F3
:10017000013EBC280310F30DFF3E031DBA2873088F
:1001800080041A30F400F830F300F30BC528F40BA8
:10019000C528000083160313200884008317211C40
:1001A00083130130F300220CF400F40C740C0739B3
:1001B000013EDC280310F30DFF3E031DDA2873080F
:1001C000FF3A80050800F501F31FE728E828EF282B
:1001D000F209F309F20A0319F30A0130F500F11FDD
:1001E000F228F328F828F009F109F00A0319F10AB6
:1001F000700871040319FD28FE282B290130F40032
:100200000A2901300310F00DF10DFF3E031D0229F4
:100210000130F407F11F0D290E290129710873021D
:10022000031D142970087202031C172918291E299E
:100230007008F2027108031CF303F302013003108B
:10024000F10CF00CFF3E031D1F290130F402031DC9
:100250002A292B290E29750803192F293029352918
:10026000F209F309F20A0319F30A7308F10072089C
:10027000F0000800F501F11F3E293F294629F00949
:10028000F109F00A0319F10A0130F500F31F4929B9
:100290004A295129F209F309F20A0319F30A013034
:1002A000F506F601F7017008710403195829592958
:1002B0008E290130F400652901300310F00DF10D95
:1002C000FF3E031D5D290130F407F11F68296929EC
:1002D0005C2901300310F60DF70DFF3E031D6A295E
:1002E00071087302031D762970087202031C7929B4
:1002F0007A2981297008F2027108031CF303F302C2
:10030000761401300310F10CF00CFF3E031D82291E
:100310000130F402031D8D298E29692975080319FE
:10032000922993299829F609F709F60A0319F70A79
:100330007708F1007608F0000800F5008316031333
:10034000200884008317211C83130130F300220846
:100350000739013EAD290310F30DFF3E031DAB2904
:10036000730880047508F30004300310F30CFF3E9B
:10037000031DB52973080F390A128A11CB220A12FC
:100380008A1183160313200884008317211C83130A
:100390000130F300220CF400F40C740C0739013E18
:1003A000D3290310F30DFF3E031DD12973088004E8
:1003B0004230F300F30BDA29000083160313200800
:1003C00084008317211C83130130F300220CF400F6
:1003D000F40C740C0739013EEF290310F30DFF3EB6
:1003E000031DED297308FF3A800575080F390A12BD
:1003F0008A11CB220A128A11831603132008840063
:100400008317211C83130130F300220CF400F40C39
:10041000740C0739013E0E2A0310F30DFF3E031D35
:100420000C2A730880044230F300F30B152A0000F5
:1004300083160313200884008317211C83130130C3
:10044000F300220CF400F40C740C0739013E2A2A44
:100450000310F30DFF3E031D282A7308FF3A8005A1
:100460000800720873040319362A372A3D2A7208D5
:100470007304031D3C2A3D2A442A70080A128A1577
:10048000EA260A128A11CA2A7208093EF400730881
:100490000318013E003EF500740884008317751CA4
:1004A00083130008F600840A0008F7007608770432
:1004B00003195B2A5C2A8E2A7208093EF40073082D
:1004C0000318013E003EF500740884008317751C74
:1004D00083130008F600840A0008F7007208023E41
:1004E000F80073080318013E003EF9007808840004
:1004F0008317791C83130008FA00840A0008FB00A4
:100500007B08803AFC007708803A7C02031D8A2A27
:1005100076087A0203188D2A8E2ACA2A7208840065
:100520008317731C83130008F400840A0008F50085
:100530007208023EF60073080318013E003EF70001
:10054000760884008317771C831300087407F9006A
:100550007508F8000318F80A801FAF2AF803780816
:10056000FA007908840083177A1C831370088000CE
:100570007208023EF40073080318013E003EF500C5
:10058000740884008317751C831301308007840A64
:100590000318800A0800F200721CCF2AD02AE52A2C
:1005A00083160313200884008317211C8313013052
:1005B000F00023080739013EDF2A0310F00DFF3E4B
:1005C000031DDD2A70088004FA2A8316031320080D
:1005D00084008317211C83130130F000230807399E
:1005E000013EF42A0310F00DFF3E031DF22A7008AD
:1005F000FF3A8005F21CFD2AFE2A142B20088400F5
:100600008317211C83130130F000230CF100F10C3F
:10061000710C0739013E0E2B0310F00DFF3E031D38
:100620000C2B700880042A2B200884008317211CBF
:1006300083130130F000230CF100F10C710C073929
:10064000013E242B0310F00DFF3E031D222B7008EA
:10065000FF3A8005721D2D2B2E2B412B2008840084
:100660008317211C83130130F00024080739013E51
:100670003B2B0310F00DFF3E031D392B7008800447
:10068000542B200884008317211C83130130F000B1
:1006900024080739013E4E2B0310F00DFF3E031DC9
:1006A0004C2B7008FF3A8005F21D572B582B6E2BF0
:1006B000200884008317211C83130130F000240CD0
:1006C000F100F10C710C0739013E682B0310F00D9D
:1006D000FF3E031D662B70088004842B20088400D5
:1006E0008317211C83130130F000240CF100F10C5E
:1006F000710C0739013E7E2B0310F00DFF3E031DE8
:100700007C2B7008FF3A80050800A0308400760832
:1007100083138000840A77088000840A78088000A8
:10072000840A79088000840A7A08800000308316E1
:1007300003132106031D9E2B05302006031DA12B4C
:10074000A22BA42B8501D32B00302106031DAA2B3D
:1007500006302006031DAD2BAE2BB02B8601D32B0C
:1007600000302106031DB62B07302006031DB92BD0
:10077000BA2BBC2B8701D32B00302106031DC22BC3
:1007800008302006031DC52BC62BC82B8801D32B90
:1007900000302106031DCE2B09302006031DD12B6E
:1007A000D22B432C89018230FC00DD30FB00FB0B97
:1007B000D72BFC0BD72BDC2B03300A128A118E208F
:1007C0000A128A112130FC007630FB00FB0BE62B6D
:1007D000FC0BE62B000003300A128A118E200A124D
:1007E0008A116830FC00E430FB00FB0BF52BFC0B9E
:1007F000F52B000003300A128A118E200A128A118A
:1008000002300A128A118E200A128A1102300A124C
:100810008A118E200A128A1108300A128A118E203B
:100820000A128A1100300A128A118E200A128A11C5
:1008300006300A128A118E200A128A110830FD0031
:100840007D157D08FB0004300310FB0CFF3E031DEB
:10085000242C7B080F390A128A118E200A128A1161
:100860007D080F390A128A118E200A128A1100306F
:100870000A128A118E200A128A1101300A128A1174
:100880008E200A128A110800663084008316031332
:10089000550883138000840A56088000840A57088C
:1008A0008000840A58088000840A59088000763045
:1008B00084008312031366088000840A670880009E
:1008C000840A68088000840A69088000840A6A082B
:1008D00080000A128A1185230A128A1100300A1236
:1008E0008A118E200A128A1101300A128A118E2072
:1008F0000A128A1108300A128A118E200A128A11ED
:1009000000300A128A118E200A128A111430F60061
:100910008030F7000A128A156B270A128A110130FB
:1009200083120313EE073C306E02031C982C992CA3
:10093000B22CEE010130EF070D306F02031CA12C29
:10094000A22CA42C0130EF000C306F06031DA92C43
:10095000AA2CB22C6D080319AE2CB02C0130B12C8E
:100960000030ED000C300A128A118E200A128A1112
:1009700000300A128A118E200A128A118312031380
:100980006D08031DC42CC52CC82C2730EB00CA2CC5
:100990002C30EB00C930CD000130CE006F08E200F2
:1009A000E3016208CF006308D0006E08E400E501AF
:1009B0006408D1006508D2006B08D3000030031D25
:1009C0008030D4000A128A15FE260A128A11C93014
:1009D000F6000030F7000A128A156B270A128A11F6
:1009E0000D3083120313E400AF30E300B530E200B2
:1009F000E20BF82CE30BF82CE40BF82CFF2C6E2CFC
:100A00000A128A110028831203132208AB0023085C
:100A1000AC002B082C04031D0E2D0F2D132D2030A0
:100A2000AB008030AC00AD01AE011C2D0130AD0734
:100A30000318AE0A0030AE072D082B07A5002C08BE
:100A4000A4000318A40AAD1F262DA40383120313C8
:100A50002408A6002608FF00250884000A128A152B
:100A600000200A128A11003A031D372D382D162D49
:100A70002E08A8002D08A70083160313260883124A
:100A80000313AA0083160313250883120313A90076
:100A90006C184B2D4C2D912D642D2030F000003022
:100AA000F100831203132008F2002108F3000A1258
:100AB0008A1131220A128A11013083120313AD0701
:100AC0000318AE0A0030AE072E08803AA4002A08A8
:100AD000803A2402031D6E2D29082D02031C712D5E
:100AE000722D4D2D912D2C08FF002B0884000A1229
:100AF0008A1500200A128A11A400A5012408F0001A
:100B00002508F1002008F2002108F3000A128A11DA
:100B100031220A128A11013083120313AB07031822
:100B2000AC0AFF3083120313A7070318A80AFF308B
:100B3000A807270A031DA02D280A031DA02DA12DFB
:100B4000732D6C1CA42DA52DCB2DBD2D2030F000B8
:100B50000030F100831203132008F2002108F30093
:100B60000A128A1131220A128A11013083120313E8
:100B7000AD070318AE0A0030AE072E08803AA40075
:100B80002A08803A2402031DC72D29082D02031CC0
:100B9000CA2DCB2DA62D0800013083120313B500FA
:100BA000B21BD32DD52D0130D62D0030B8008316C1
:100BB0000313260883120313B700831603132508B3
:100BC00083120313B60038080319E72DE82DFE2D14
:100BD000FF30B6070318B70AFF30B7073808031D00
:100BE000F22DF32DF82D2B30B3000030B400FC2D86
:100BF0002D30B3000030B4003308B8001F30B90006
:100C00000030BA0083160313C801452EFF30B90720
:100C10000318BA0AFF30BA073908A93E84000A301F
:100C2000F0000030F1003208F3003108F2000A123F
:100C30008A11E3200A128A117108F7007008F60081
:100C40000A128A15ED260A128A117608303E83139D
:100C5000800083120313B501FF30B6070318B70AEB
:100C6000FF30B7070A30F0000030F1003208F3001F
:100C70003108F2000A128A113A210A128A11710807
:100C800083120313B2007008B10083123A08803A4D
:100C9000FF0080307F02031D4F2E01303902031CFC
:100CA000522E532E732E8312031331083204031D68
:100CB0005A2E5B2E062E3508031D5F2E602E062E43
:100CC0003708803AFF0080307F02031D692E013013
:100CD0003602031C6C2E6D2E732E83120313EC1838
:100CE000722E732E062E8312031338080319792EE1
:100CF0007A2E862EFF30B9070318BA0AFF30BA07DA
:100D00003908A93E84003808831380002F08A80002
:100D10003008A9003908A93EAA003708AC003608F7
:100D2000AB000A128A15AD270A128A110800831235
:100D300003133D0884008313000884000A128A15F7
:100D40000A200A128A11253A031DA72EA82EA92FC0
:100D50003D0884000130800783160313A501A60116
:100D6000003083120313EC00FF3083160313A70037
:100D7000FF30A80083120313C701D42EEC143D08E2
:100D8000840001308007D42E0130C700D42E3D08E6
:100D90008400000884000A128A150A200A128A11A7
:100DA000303A0319BE2EC42E47080319D82ED92E67
:100DB000C72E3D08F6003E08F7000A128A113B20B4
:100DC0000A128A11770883160313A6007608A50075
:100DD000A61FEB2EEC2EF62E831203136C14831633
:100DE0000313A509A609A50A0319A60A831203136A
:100DF0003D08840083130008C600460884000A12D8
:100E00008A150A200A128A11643A0319082F092F39
:100E1000152F460884000A128A150A200A128A1120
:100E2000693A031D142F152F392F3E0884008317AC
:100E30003F1C83130008C000023080074008840074
:100E400083130008C200840A0008C3003D08840020
:100E50004608013E80003B08AF003C08B000430854
:100E6000B2004208B1000A128A11CC250A128A1176
:100E7000C22FC7013D088400000884000A128A15A9
:100E80000A200A128A11733A031D472F482F4F2F49
:100E90003D088400013080070130C700802F3D08E5
:100EA0008400000884000A128A150A200A128A1196
:100EB0006C3A031D5C2F5D2F802F3D0884000008D5
:100EC000013E84000A128A150A200A128A116C3A1D
:100ED000031D6B2F6C2F802F3D0884000008023EFD
:100EE00084000A128A150A200A128A11733A031D15
:100EF0007A2F7B2F802F3D088400033080074C2FF2
:100F000047080319842F852FA12F3B08A0003C0818
:100F1000A1003E08840083173F1C83130008C00013
:100F2000023080074008840083130008A200840A6E
:100F300000088403A3000A128A1103250A128A11E9
:100F4000C22F831203133D088400013083138007EE
:100F5000C22F3D088400000884000A128A150A2066
:100F60000A128A11C000C1014008F0004108F100D6
:100F70003B08F2003C08F3000A128A1131220A12DF
:100F80008A11A12F0800831603130A128A11032065
:100F90000A128A11D5000A128A1104200A128A1133
:100FA000D6000A128A1105200A128A11D7000A12E5
:100FB0008A1106200A128A11D8000A128A11072003
:100FC0000A128A11D900831203130A128A15EB261A
:100FD0000A128A11EE000A128A15EC260A128A11E8
:100FE000EF008313A0308400D5300A128A11082044
:100FF0000A128A11EC01ED0183010A128A11442CB4
:10100000FF1B0A2883137F1883170008840A03191B
:10101000FF0A080008308A000408840A82070034A6
:1010200048346F34723461343A34203425343034E7
:10103000323464343A342534303432346434203435
:10104000253473340034533461346E347434613471
:1010500020344D34613472347434613400342834B3
:101060006E3475346C346C342934003461342E346D
:101070006D342E34003470342E346D342E340034FC
:101DD400080001340734F71BF02EF12EF22EFD2EED
:101DE4007609F8007709F900F80A0319F90A78085E
:101DF400F6007908F70008004F3083120313D60069
:101E04004D08D7000030D800D901DA01E001E10122
:101E14005730C8000030C9004E08CA005630CB0005
:101E24000A128A1546270A128A15831203135908BF
:101E34004D07D50055088400831380010800F40180
:101E4400F501701C262F272F2D2F7208F407031875
:101E5400F50A7308F50701300310F20DF30DFF3E88
:101E6400031D2E2F01300310F10CF00CFF3E031D57
:101E7400352F70087104031D402F412F232F75083F
:101E8400F1007408F0000800831203134A08CC0020
:101E94005A2F4808BB004908BC004C30BD004B0811
:101EA400BE000030BF000A128A1197260A128A1552
:101EB400831203134C0884000A128A150A200A129A
:101EC4008A15003A031D672F682F4B2FC801C901DB
:101ED4000800FB01FC01902F7B087607F9007708C6
:101EE400F8000318F80AFB1F782FF8037808FA00A3
:101EF4007A0883120313FF00790884000A128A15F2
:101F040000200A128A150A128A119D210A128A15C2
:101F14000130FB070318FC0A0030FC077B08760736
:101F2400F9007708F8000318F80AFB1F9A2FF80342
:101F34007808FA007A0883120313FF0079088400F2
:101F44000A128A1500200A128A15003A031DAB2FC3
:101F5400AC2F6E2F0800831203136C1CB22FB32F07
:101F6400BE2F2A08A0002808A1002908A2000A12EE
:101F74008A1110200A128A1583120313AC1FC32F6F
:101F8400C42FC62FAB01AC01AD01AE01E02F203050
:101F9400F0000030F100831203132808F20029082E
:101FA400F3000A128A1131220A128A1501308312AF
:101FB4000313AD070318AE0A0030AE072E08803AAB
:101FC400FD002C08803A7D02031DEA2F2B082D0208
:101FD400031CED2FEE2FC92F831203136C18F32F5C
:101FE400F42FFF2F2A08A0002808A1002908A20026
:0C1FF4000A128A1110200A128A15080037
:02400E00F2209E
:00000001FF
