:100000000A128A11FB2F00308A000408840A820732
:0C001000003400340134033402340634A0
:100F900083120313880183160313880174080A124D
:100FA0008A11E1270A128A110130F4070530740210
:100FB000031CDB2FDC2FCE2FF401CE2F0A128A1157
:100FC0000028F3007308013E84000A128A110320EE
:100FD0000A128A118312031388001A30F2005E305D
:100FE000F1006E30F000F00BF32FF10BF32FF20B4A
:100FF000F32F00000800F40183010A128A11C82FA0
:02400E00F2209E
:00000001FF
