:100000000A128A11F62F00308A000408840A820737
:1000100000343F3406345B344F3466346D347D3401
:0600200007347F346F3449
:100B6C008312031387018316031387018312031364
:100B7C0088018316031388018316031788018312D7
:100B8C000313850107308316031385000A128A119B
:100B9C0058260A128A11831203132D08A1002C085F
:100BAC00A0000A128A1116270A128A118312031343
:100BBC002E080319E22DE32DCC2D0130AF070F3099
:100BCC002F06031DEA2DEB2DCC2DAF010130AC0708
:100BDC000318AD0A0030AD0710302C06273003196E
:100BEC002D06031DFA2DFB2DCC2DAC01AD01CC2D0A
:100BFC000A128A110028FD01FB1F052E062E0D2E50
:100C0C00FA09FB09FA0A0319FB0A0130FD00F91F66
:100C1C00102E112E162EF809F909F80A0319F90AE3
:100C2C007808790403191B2E1C2E492E0130FC0068
:100C3C00282E01300310F80DF90DFF3E031D202E58
:100C4C000130FC07F91F2B2E2C2E1F2E79087B024E
:100C5C00031D322E78087A02031C352E362E3C2EBC
:100C6C007808FA027908031CFB03FB02013003101D
:100C7C00F90CF80CFF3E031D3D2E0130FC02031D48
:100C8C00482E492E2C2E7D0803194D2E4E2E532EF8
:100C9C00FA09FB09FA0A0319FB0A7B08F9007A081E
:100CAC00F80008008312031305185D2E5E2E772EB4
:100CBC000230F2004530F100A930F000F00B642E48
:100CCC00F10B642EF20B642E6B2E8312031305189A
:100CDC00702E712E772E0130AE00051C762E772EDD
:100CEC00732E85187A2E7B2E932E0230F20045300F
:100CFC00F100A930F000F00B812EF10B812EF20BDC
:100D0C00812E882E8312031385188D2E8E2E932EF2
:100D1C00AE01851C922E932E8F2E0519962E972E92
:100D2C00B22E0230F2004530F100A930F000F00B89
:100D3C009D2EF10B9D2EF20B9D2EA42E83120313D0
:100D4C000519A92EAA2EB22EAC01AD01AF01AE0130
:100D5C00051DB12EB22EAE2E0800F501F11FB72ED7
:100D6C00B82EBF2EF009F109F00A0319F10A01306F
:100D7C00F500F31FC22EC32ECA2EF209F309F20A94
:100D8C000319F30A0130F506F601F7017008710436
:100D9C000319D12ED22E072F0130F400DE2E013094
:100DAC000310F00DF10DFF3E031DD62E0130F4079C
:100DBC00F11FE12EE22ED52E01300310F60DF70DAA
:100DCC00FF3E031DE32E71087302031DEF2E700806
:100DDC007202031CF22EF32EFA2E7008F202710826
:100DEC00031CF303F302761401300310F10CF00C26
:100DFC00FF3E031DFB2E0130F402031D062F072FAF
:100E0C00E22E750803190B2F0C2F112FF609F70979
:100E1C00F60A0319F70A7708F1007608F0000800C3
:100E2C0083120313A601A701A801A901AA01AB0112
:100E3C000A30F8000030F900E830F0000330F1001F
:100E4C002108F3002008F2000A128A11B3260A12B4
:100E5C008A117108FB007008FA000A128A11012627
:100E6C000A128A11790883120313A5007808A400CA
:100E7C000A30F8000030F9006430F0000030F10066
:100E8C002108F3002008F2000A128A11B3260A1274
:100E9C008A117108FB007008FA000A128A110126E7
:100EAC000A128A11790883120313A7007808A60086
:100EBC000A30F8000030F9000A30F0000030F10080
:100ECC002108F3002008F2000A128A11B3260A1234
:100EDC008A117108FB007008FA000A128A110126A7
:100EEC000A128A11790883120313A9007808A80042
:100EFC000A30F8000030F9002108FB002008FA0045
:100F0C000A128A1101260A128A1179088312031314
:100F1C00AB007808AA002A08013E84000A128A1144
:100F2C0003200A128A11870008308800413083128E
:100F3C000313A300ED30A200A20BA22FA30BA22F30
:100F4C00A72F8312031388012808013E84000A127C
:100F5C008A1103200A128A1187000430880041305C
:100F6C0083120313A300ED30A200A20BBB2FA30B23
:100F7C00BB2FC02F8312031388012608013E840067
:100F8C000A128A1103200A128A1187000230880083
:100F9C00413083120313A300ED30A200A20BD42F17
:100FAC00A30BD42FD92F8312031388012408013EDD
:100FBC0084000A128A1103200A128A118700013058
:100FCC008800413083120313A300ED30A200A20B62
:100FDC00ED2FA30BED2FF22F8312031388010800C2
:100FEC0083120313AC01AD01AE01AF0183010A12F0
:040FFC008A11B62D73
:02400E00F2209E
:00000001FF
