:100000000A128A11E42FFF1B0D2883137F18831710
:100010000008840A0319FF0A080000308A00040857
:10002000840A820700344534763465347234793476
:100030007434683469346E3467342034693473340A
:10004000203467346F346F34643420343B342934C3
:10005000003425343034323464343A342534303486
:10006000323464343A342534303432346434203415
:100070002534733400346C346F346134643469343F
:100080006E3467342E342E342E34003428346E34DB
:1000900075346C346C342934003441344D340034BC
:0600A00050344D34003421
:1000A80008000134073483160313111583128C1DBD
:1000B8005E285F285A288C110800F0007008831207
:1000C800031393008C1D69286A2866288C118316EF
:1000D80003131108080001300A128A11CA210A12F2
:1000E8008A110D30F600FB30F500F50B7928F60B78
:1000F80079287E280800F71B8228832884288F28DF
:100108007609F8007709F900F80A0319F90A780856
:10011800F6007908F7000800F00083160313871526
:10012800071670089400283083120313940083166E
:100138000313910180307006031DA328A428A72863
:1001480031309300AE287008031DAB28AC28AE28C8
:100158000C30930008004F3083120313D8004D0869
:10016800D9000030DA00DB01DC01E201E30159309B
:10017800C8000030C9004E08CA005830CB000A1227
:100188008A11F7200A128A11831203135B084D079C
:10019800D70057088400831380010800F401F50193
:1001A800701CD728D828DE287208F4070318F50A27
:1001B8007308F50701300310F20DF30DFF3E031D20
:1001C800DF2801300310F10CF00CFF3E031DE62878
:1001D80070087104031DF128F228D4287508F1006D
:1001E8007408F0000800831203134A08CC000B2996
:1001F8004808BB004908BC004C30BD004B08BE0095
:100208000030BF000A128A11B8260A128A11831216
:1002180003134C0884000A128A110D200A128A114D
:10022800003A031D18291929FC28C801C90108002A
:10023800F6002929F70137294030F700372914300B
:10024800F70037295430F70037297508013A0319A0
:100258001E29033A03192029013A03192329073AC9
:10026800031926291E297608FF3EF70777088038E4
:100278000A128A11CA210A128A1108005729760817
:10028800FF00750884000A128A1103200A128A11D5
:100298000A128A1109220A128A110130F507031875
:1002A800F60A0030F607760883120313FF00750874
:1002B80084000A128A1103200A128A11003A031DC7
:1002C800662967294329080083120313A601A70199
:1002D80085292508A300A4012308F0002408F100BB
:1002E8002108F2002208F3000A128A11A8230A1230
:1002F8008A11013083120313A6070318A70A0030D6
:10030800A70726082007A3002308840083130008F2
:10031800A5002508031D912992296D29080082301E
:10032800F600DD30F500F50B9729F60B97299C2987
:1003380033300A128A11CA210A128A1132300A127B
:100348008A11CA210A128A1128300A128A11CA216E
:100358000A128A110C300A128A11CA210A128A1149
:1003680006300A128A11CA210A128A1101300A12A9
:100378008A11CA210A128A111430F6007930F50060
:10038800F50BC429F60BC429C9290800F200720824
:10039800F300F030F3057208F10003300310F10D9B
:1003A800FF3E031DD2290310710DF400F030F4054F
:1003B8000A128A15F6270A128A114E300A128A1171
:1003C80061200A128A1173080C380A128A116120F6
:1003D8000A128A11730808380A128A1161200A124F
:1003E8008A1174080C380A128A1161200A128A11BB
:1003F800740808380A128A1161200A128A110A122E
:100408008A1157200A128A110800F2007208F300B4
:10041800F030F3057208F10003300310F10DFF3ED0
:10042800031D112A0310710DF400F030F4050A12AF
:100438008A15F6270A128A114E300A128A1161208B
:100448000A128A1173080D380A128A1161200A12D9
:100458008A11730809380A128A1161200A128A114E
:1004680074080D380A128A1161200A128A11740858
:1004780009380A128A1161200A128A110A128A118D
:1004880057200A128A110800831203136B1C4D2A85
:100498004E2A592A2A08A0002808A1002908A200E3
:1004A8000A128A1168210A128A1183120313AC1FD7
:1004B8005E2A5F2A612AAB01AC01AD01AE017B2A3D
:1004C8002030F0000030F100831203132808F200F6
:1004D8002908F3000A128A11A8230A128A11013086
:1004E80083120313AD070318AE0A0030AE072E08B7
:1004F800803AFD002C08803A7D02031D852A2B08CE
:100508002D02031C882A892A642A831203136B1874
:100518008E2A8F2A9A2A2A08A0002808A1002908CA
:10052800A2000A128A1168210A128A110800FA0127
:10053800FB01760884008313000884000A128A11DC
:100548000D200A128A112A3A031DAB2AAC2AD82A8E
:100558007608840001308007770884000008F800D6
:1005680002308007780884000008FA00840A00082E
:10057800FB00E92A7B08F1007A08F0000A30F20053
:100588000030F3000A128A11D2200A128A1179085F
:100598007007FA000030031801307107FB00760875
:1005A80084000130831380077608840000088400E3
:1005B8000A128A110D200A128A11D03EF9000A3057
:1005C8007902031CE82AE92ABE2A7B08F7007A0880
:1005D800F6000800F501F31FF22AF32AFA2AF209B5
:1005E800F309F20A0319F30A0130F500F11FFD2A95
:1005F800FE2A032BF009F109F00A0319F10A700821
:1006080071040319082B092B362B0130F400152B24
:1006180001300310F00DF10DFF3E031D0D2B0130CD
:10062800F407F11F182B192B0C2B71087302031DEB
:100638001F2B70087202031C222B232B292B7008F6
:10064800F2027108031CF303F30201300310F10CEA
:10065800F00CFF3E031D2A2B0130F402031D352B3D
:10066800362B192B750803193A2B3B2B402BF20913
:10067800F309F20A0319F30A7308F1007208F0008B
:100688000800F501F11F492B4A2B512BF009F109FC
:10069800F00A0319F10A0130F500F31F542B552B0A
:1006A8005C2BF209F309F20A0319F30A0130F50683
:1006B800F601F701700871040319632B642B992B59
:1006C8000130F400702B01300310F00DF10DFF3EE6
:1006D800031D682B0130F407F11F732B742B672B54
:1006E80001300310F60DF70DFF3E031D752B710841
:1006F8007302031D812B70087202031C842B852B47
:100708008C2B7008F2027108031CF303F3027614B1
:1007180001300310F10CF00CFF3E031D8D2B01304E
:10072800F402031D982B992B742B750803199D2B24
:100738009E2BA32BF609F709F60A0319F70A77087F
:10074800F1007608F0000800720873040319AD2B55
:10075800AE2BB42B72087304031DB32BB42BBB2B25
:1007680070080A128A1154200A128A11412C720840
:10077800093EF40073080318013E003EF5007408B2
:1007880084008317751C83130008F600840A000888
:10079800F700760877040319D22BD32B052C72089F
:1007A800093EF40073080318013E003EF500740882
:1007B80084008317751C83130008F600840A000858
:1007C800F7007208023EF80073080318013E003E65
:1007D800F900780884008317791C83130008FA004D
:1007E800840A0008FB007B08803AFC007708803AFE
:1007F8007C02031D012C76087A020318042C052CB0
:10080800412C720884008317731C83130008F400BA
:10081800840A0008F5007208023EF60073080318FF
:10082800013E003EF700760884008317771C831387
:1008380000087407F9007508F8000318F80A801F03
:10084800262CF8037808FA007908840083177A1CA4
:100858008313700880007208023EF40073080318BE
:10086800013E003EF500740884008317751C83134D
:1008780001308007840A0318800A080083120313D2
:100888002208AB002308AC002B082C04031D4D2CB8
:100898004E2C522C3430AB008030AC00AD01AE0190
:1008A8005B2C0130AD070318AE0A0030AE072D08E7
:1008B8002B07A5002C08A4000318A40AAD1F652C5B
:1008C800A403831203132408A6002608FF002508A2
:1008D80084000A128A1103200A128A11003A031DA1
:1008E800762C772C552C2E08A8002D08A7008316E7
:1008F8000313210883120313AA0083160313200885
:1009080083120313A9006B188A2C8B2CD02CA32CD0
:100918002030F0000030F100831203132008F200A9
:100928002108F3000A128A11A8230A128A11013039
:1009380083120313AD070318AE0A0030AE072E0862
:10094800803AA4002A08803A2402031DAD2C290805
:100958002D02031CB02CB12C8C2CD02C2C08FF00A1
:100968002B0884000A128A1103200A128A11A40093
:10097800A5012408F0002508F1002008F20021084C
:10098800F3000A128A11A8230A128A11013083126D
:100998000313AB070318AC0AFF3083120313A7072E
:1009A8000318A80AFF30A807270A031DDF2C280A06
:1009B800031DDF2CE02CB22C6B1CE32CE42C0A2D3D
:1009C800FC2C2030F0000030F100831203132008C3
:1009D800F2002108F3000A128A11A8230A128A11C8
:1009E800013083120313AD070318AE0A0030AE07B7
:1009F8002E08803AA4002A08803A2402031D062DF6
:100A080029082D02031C092D0A2DE52C08000130A8
:100A180083120313B500B21B122D142D0130152DAE
:100A28000030B80083160313210883120313B7009C
:100A380083160313200883120313B600380803191A
:100A4800262D272D3D2DFF30B6070318B70AFF3096
:100A5800B7073808031D312D322D372D2B30B30041
:100A68000030B4003B2D2D30B3000030B400330803
:100A7800B8001F30B9000030BA0083160313C30151
:100A8800842DFF30B9070318BA0AFF30BA073908AE
:100A9800A43E84000A30F0000030F1003208F30070
:100AA8003108F2000A128A11EE220A128A1171081C
:100AB800F7007008F6000A128A117F200A128A11BC
:100AC8007608303E8313800083120313B501FF308C
:100AD800B6070318B70AFF30B7070A30F00000302E
:100AE800F1003208F3003108F2000A128A11452396
:100AF8000A128A11710883120313B2007008B10038
:100B080083123A08803AFF0080307F02031D8E2D41
:100B180001303902031C912D922DB22D831203133B
:100B280031083204031D992D9A2D452D3508031DD2
:100B38009E2D9F2D452D3708803AFF0080307F027B
:100B4800031DA82D01303602031CAB2DAC2DB22D90
:100B580083120313EB18B12DB22D452D8312031305
:100B680038080319B82DB92DC52DFF30B90703185A
:100B7800BA0AFF30BA073908A43E8400380883133C
:100B880080002F08A8003008A9003908A43EAA0050
:100B98003708AC003608AB000A128A1148220A123C
:100BA8008A11080080300A128A1190200A128A11CC
:100BB800033083120313E6008A30E5005530E40061
:100BC800E40BE42DE50BE42DE60BE42D0A128A1163
:100BD80093210A128A11033083120313E6008A3024
:100BE800E5005530E400E40BF72DE50BF72DE60B97
:100BF800F72D0A128A116F200A128A11F501F50AD7
:100C080001300A128A111C210A128A112930F500B2
:100C18008030F6000A128A1142210A128A111A300B
:100C280083120313E6005E30E5006D30E400E40B48
:100C38001B2EE50B1B2EE60B1B2E222E0A128A11E9
:100C48006F200A128A11F501F50A01300A128A1179
:100C58001C210A128A110130F5008030F6000A12B0
:100C68008A1142210A128A11013083120313ED07F7
:100C78003C306D02031C412E422E642EED010130E2
:100C8800EE073C306E02031C4A2E4B2E642EEE01FA
:100C98000130EF070D306F02031C532E542E562ED1
:100CA8000130EF000C306F06031D5B2E5C2E642EA6
:100CB8006C080319602E622E0130632E0030EC00A0
:100CC800F501F50A02300A128A111C210A128A114A
:100CD800831203136C08031D722E732E762E3B307D
:100CE800EA00782E3E30EA00C430CD001730CE003E
:100CF8006F08E400E5016408CF006508D0006E08BD
:100D0800E600E7016608D1006708D2006D08E80030
:100D1800E9016808D3006908D4006A08D5000030E2
:100D2800031D8030D6000A128A11AF200A128A11D8
:100D3800C430F5000030F6000A128A1142210A1266
:100D48008A111A3083120313E6005E30E5006D3015
:100D5800E400E40BAD2EE50BAD2EE60BAD2EB42E64
:100D6800222E0A128A110028831203133D088400D8
:100D78008313000884000A128A110D200A128A11AE
:100D8800253A031DC82EC92ECA2F3D0884000130FC
:100D9800800783160313A001A101003083120313F7
:100DA800EB00FF3083160313A200FF30A300831269
:100DB8000313C701F52EEB143D08840001308007AA
:100DC800F52E0130C700F52E3D0884000008840088
:100DD8000A128A110D200A128A11303A0319DF2EDD
:100DE800E52E47080319F92EFA2EE82E3D08F600DD
:100DF8003E08F7000A128A119B220A128A11770804
:100E080083160313A1007608A000A11F0C2F0D2F35
:100E1800172F831203136B1483160313A009A10958
:100E2800A00A0319A10A831203133D08840083133F
:100E38000008C600460884000A128A110D200A120A
:100E48008A11643A0319292F2A2F362F460884005D
:100E58000A128A110D200A128A11693A031D352FC8
:100E6800362F5A2F3E08840083173F1C831300082F
:100E7800C000023080074008840083130008C200C5
:100E8800840A0008C3003D0884004608013E80002B
:100E98003B08AF003C08B0004308B2004208B1006C
:100EA8000A128A110B250A128A11E32FC7013D087D
:100EB8008400000884000A128A110D200A128A117F
:100EC800733A031D682F692F702F3D088400013085
:100ED80080070130C700A12F3D0884000008840066
:100EE8000A128A110D200A128A116C3A031D7D2FED
:100EF8007E2FA12F3D0884000008013E84000A12BD
:100F08008A110D200A128A116C3A031D8C2F8D2F1D
:100F1800A12F3D0884000008023E84000A128A11AD
:100F28000D200A128A11733A031D9B2F9C2FA12FA3
:100F38003D088400033080076D2F47080319A52F4B
:100F4800A62FC22F3B08A0003C08A1003E08840041
:100F580083173F1C83130008C00002308007400835
:100F6800840083130008A200840A00088403A300F5
:100F78000A128A1142240A128A11E32F83120313D8
:100F88003D088400013083138007E32F3D08840067
:100F9800000884000A128A110D200A128A11C00062
:100FA800C1014008F0004108F1003B08F2003C088C
:100FB800F3000A128A11A8230A128A11C22F080004
:100FC8000A128A1155200A128A11EE000A128A1191
:100FD80056200A128A11EF008313A0308400D830FB
:100FE8000A128A15EE270A128A11EB01EC01ED01AB
:080FF80083010A128A11D62DB3
:101FDC0064008001840A0406031900340406EF2F00
:101FEC0083160313111483128C1DFD2FFE2FF92F52
:041FFC008C1108003C
:02400E00F2209E
:00000001FF
