:100000000A128A11F62F00308A000408840A820737
:1000100000343F3406345B344F3466346D347D3401
:0600200007347F346F3449
:100C6E008312031387018316031387018312031361
:100C7E0088018316031388018316031788018312D4
:100C8E000313850107308316031385000A128A1198
:100C9E00D7260A128A11831203132508F900240895
:100CAE00F8000A128A1132270A128A1183120313CC
:100CBE0026080319632E642E4D2E0130FD070F30CA
:100CCE007D06031D6B2E6C2E4D2EFD010130A407EB
:100CDE000318A50A0030A507643024062504031D59
:100CEE00792E7A2E4D2EA401A5014D2E0A128A11AF
:100CFE000028F501F31F842E852E8C2EF209F309A0
:100D0E00F20A0319F30A0130F500F11F8F2E902E0F
:100D1E00952EF009F109F00A0319F10A7008710411
:100D2E0003199A2E9B2EC82E0130F400A72E0130E7
:100D3E000310F00DF10DFF3E031D9F2E0130F40741
:100D4E00F11FAA2EAB2E9E2E71087302031DB12E1B
:100D5E0070087202031CB42EB52EBB2E7008F20260
:100D6E007108031CF303F30201300310F10CF00CB5
:100D7E00FF3E031DBC2E0130F402031DC72EC82EEC
:100D8E00AB2E75080319CC2ECD2ED22EF209F309F7
:100D9E00F20A0319F30A7308F1007208F000080052
:100DAE00831203130518DC2EDD2EF62E0230F20010
:100DBE004530F100A930F000F00BE32EF10BE32EDD
:100DCE00F20BE32EEA2E831203130518EF2EF02EEC
:100DDE00F62E0130A600051CF52EF62EF22E8518E5
:100DEE00F92EFA2E122F0230F2004530F100A93002
:100DFE00F000F00B002FF10B002FF20B002F072F3E
:100E0E008312031385180C2F0D2F122FA601851C8C
:100E1E00112F122F0E2F0519152F162F312F0230CD
:100E2E00F2004530F100A930F000F00B1C2FF10B51
:100E3E001C2FF20B1C2F232F831203130519282F9F
:100E4E00292F312FA401A501FD01A601051D302F6B
:100E5E00312F2D2F080083120313A201A3010A3094
:100E6E00F0000030F1007908F3007808F2000A1261
:100E7E008A1193270A128A11710883120313A10093
:100E8E007008A0000A30F0000030F1007908F3007D
:100E9E007808F2000A128A1180260A128A11710845
:100EAE0083120313A3007008A2002208013E8400DF
:100EBE000A128A1103200A128A1187000230880052
:100ECE000230FC000430FB00BA30FA00FA0B6D2F32
:100EDE00FB0B6D2FFC0B6D2F00008312031388018B
:100EEE002008013E84000A128A1103200A128A1178
:100EFE008700013088000230FC000430FB00BA305D
:100F0E00FA00FA0B882FFB0B882FFC0B882F0000A2
:100F1E008312031388010800F501F11F972F982FF4
:100F2E009F2FF009F109F00A0319F10A0130F500BB
:100F3E00F31FA22FA32FAA2FF209F309F20A031906
:100F4E00F30A0130F506F601F70170087104031972
:100F5E00B12FB22FE72F0130F400BE2F0130031056
:100F6E00F00DF10DFF3E031DB62F0130F407F11FFA
:100F7E00C12FC22FB52F01300310F60DF70DFF3E16
:100F8E00031DC32F71087302031DCF2F7008720249
:100F9E00031CD22FD32FDA2F7008F2027108031C14
:100FAE00F303F302761401300310F10CF00CFF3E44
:100FBE00031DDB2F0130F402031DE62FE72FC22F96
:100FCE0075080319EB2FEC2FF12FF609F709F60A26
:100FDE000319F70A7708F1007608F0000800FD0102
:100FEE0083120313A401A501A60183010A128A111B
:020FFE00372E8C
:02400E00F2209E
:00000001FF
